:020000040800F2
:10000000B8080020D9000008B1260008AB2200087B
:1000100000000000000000000000000000000000E0
:10002000000000000000000000000000B5260008ED
:100030000000000000000000B3260008512700085F
:10004000EB000008EB000008EB000008EB000008E4
:10005000EB000008EB000008EB000008EB000008D4
:1000600000000000EB000008EB000008EB000008B7
:10007000EB000008EB00000800000000EB000008A7
:100080000000000000000000000000000000000070
:10009000EB00000800000000EB000008EB00000887
:1000A00000000000EB00000800000000000000005D
:1000B0004D2C0008AD2200080000000000000000E8
:1000C0000448854600F0E6FC00480047C9360008B1
:1000D000C046C046B808002004488047044800478E
:1000E000FEE7FEE7FEE7FEE7FEE7FEE7E1270008A2
:1000F000C100000830B50B46014600202022012433
:1001000009E00D46D5409D4205D31D469540491B4B
:100110002546954040191546521E002DF1DC30BD94
:10012000F0B51FB40646002082B005464024019178
:1001300000901BE0019922460F46304600F0E8FA95
:10014000049A059B801A994110D3104619462246FD
:1001500000F0CEFA361A8F41019722460120002185
:10016000009F00F0C5FA38184D4100902046641EEB
:100170000028DFDC019B00982946324607B0F0BD1D
:10018000D2B201E00270401C491EFBD2704700222F
:10019000F6E710B513460A4604461946FFF7F0FF86
:1001A000204610BD30B505462A460B4610781C780F
:1001B000521C5B1C002801D0A042F7D0002C03D0B9
:1001C000002802D06D1CEFE7284630BD421C0178A4
:1001D000401C0029FBD1801A7047000070B5104DFB
:1001E000002800D12868002414E00A4602E09E425C
:1001F00003D0521C1378002BF9D1DAB2224307D076
:10020000002B06D0002C04D000210170401C04E01B
:100210000446401C0678002EE7D12860204670BDB9
:100220003C000020F8B502464A40D40F42004B0083
:1002300052085B089A4202D20246084611464A001A
:1002400023D0C30D4A00DDB2120EAD1A202D35DACF
:1002500049020126490AF6058A19002C00D05242AB
:1002600020214F1B1146B9402A411018C20D9A4255
:1002700021D0002C17D0012D08DCDA05801AD20F0E
:100280008019D207DBB200F0C1FAF8BDDA05801A96
:10029000012340001B06C01880185A428018CA0F5C
:1002A0001043490007E04908C2071143DA05801AE4
:1002B00080194008801800F0A1FAF8BD6100012201
:1002C000511A001BF7E70122D2075140AAE7012289
:1002D000D2075040A6E7024670B54A40D30FDB076D
:1002E00040002DD04A002AD0010E140E0002120246
:1002F0000919400A520A8418E50104465443000AC9
:10030000120A2E045043A4194219200CC543AA18FE
:10031000120C0125AD03521C521912047F3924041A
:1003200000D0521C104301D44000491EC2B20C063A
:10033000C0092018401C4008802A02D003E0002099
:1003400070BD40084000002900DA0020184370BD4D
:1003500070B502464A40D50F40004A00ED074008FC
:100360005208002814D0002A12D0C40DD30D410227
:100370000120C0055202490A520AE41A091812184B
:100380007D34914201D3641C00E04900002C01DA65
:10039000002070BD0023914201D3891A0343400815
:1003A00049000028F7D100290AD0914202D1012149
:1003B000C90705E0914201D2012101E00121C943B1
:1003C000E005C018401900F019FA70BD420005D0D0
:1003D0004200120E52428A4201DB00207047C905DA
:1003E00008187047F0B507460846584087B0C00F58
:1003F000049048000E46590040084908BC1A88413C
:1004000005D2384631461E4617460B46024658006E
:10041000400810434DD0300D039040055900400D69
:10042000490D0590401A0290402873DA1803012103
:10043000000B09050843019004980092002806D09B
:100440001146019A49420020904100910190029882
:1004500040210A1A0199009800F04AF905460C4615
:100460006B4607CB00F065F9C0197141039A0E0D78
:100470000023D71756401A467A40164344D0049AB0
:10048000002A2DD0029A012A039A15DC1205C01AFF
:10049000914101263605001C7141D20F059ED207FD
:1004A0000093019202962A46234600F0F5F907B020
:1004B000F0BD38463146FAE71605234A0F46B21812
:1004C000C01AB74101210905001C4F4100187F41A6
:1004D000114618187941E20F10436D19644113E079
:1004E000E2076D0815436408C2071443039A012606
:1004F0001205C01A91413605001C7141CE07400813
:1005000030434908C01851412A46234600F0B7F944
:10051000CDE7FFE7049801224000C117121A00231B
:100520008B4104983146C417381AA141EEE730B424
:100530000124E407634030BC54E730B40124E407ED
:10054000614030BC4EE700000000E0FFF0B51FB492
:1005500088B00B990998002448400999C00F4900B8
:1005600049080991C0070B990090490049080B916F
:1005700009990898A64608431CD00B990A98084385
:1005800018D0099801244000420D4800410D0998F7
:1005900024050003000B204309900B980003000B77
:1005A00020430B9050181C4940180022019014461B
:1005B000104605E0002001460DB0F0BD032801DA29
:1005C000034600E003239C46C11A0AAE0AE05F001E
:1005D00008ADED5B4F00F75B7D430027AA187C4117
:1005E000491C5B1E6145F2DD410004AB5A522104F7
:1005F000120C0A43240C401C0828DFDB01980290EF
:100600000099704601910090059B049A07990698FD
:1006100000F042F9D0E700000DFCFFFF10B500220A
:100620009623114600F0F2F810BD4100400201226D
:10063000400AD205090E80187F2901DA0020704790
:10064000962903DC9622511AC84070479639884093
:10065000704700004A0009030123090B1B051943D9
:10066000094B10B5520D9A4201DA002010BD064B1D
:1006700034339A4203DC9A1A00F04AF810BD034959
:100680005118884010BD0000FF030000CDFBFFFFA4
:10069000C20FD207400040080BD0C10D0723DB0179
:1006A000C91840020905400A1143C2084007114316
:1006B0007047002001467047CB0FDB07490010B59B
:1006C000490802460A4307D00A0D07240903E4013A
:1006D000090B121B002A01DC002010BDC900440FC9
:1006E0000C43C100E018D205801800F087F810BD57
:1006F00010B5202A04DB0146203A9140002010BDAD
:10070000914020239C1A0346E3401943904010BDBA
:1007100010B5202A04DB0846203AD040002110BD45
:100720000B46D340D0402024A21A914008431946DA
:1007300010BD10B5202A06DBCB170846203A104121
:10074000C1170B4306E00B461341D0402024A21AE8
:1007500091400843194610BD0FB400B589B00CA9EB
:1007600000910B990023CB60204B214A06930792FE
:10077000042201921F4A02921F4A089202466B46C7
:10078000002000F030FA09B008BC04B0184770B57A
:1007900086B006460020C0430190002015460C4656
:1007A0000091029104903246694604A8FFF7D4FFF5
:1007B000024604982118002D05D0002801D00846D3
:1007C00000E020462860049800280DD0002A02DDB1
:1007D0000098884208D0081B019000943246694670
:1007E000029404A8FFF7B8FF06B070BD3D0E0008E4
:1007F0005D0E0008FFFFFF7FB90A0008002904DA38
:10080000401C490001D140084000704770B40024EA
:10081000050C05D11024000402D1002921D0112497
:10082000050E01D100020834050F01D10001241D7D
:10083000850F01D18000A41C002801DB4000641C4E
:10084000002908D020252E1B0D46F540A14000D0E0
:1008500001212943084301061B1B000ADB1D02D5A9
:10086000002070BC7047DB05181880180029F8DAE2
:10087000401C4900F5D170BC40084000704710B5DD
:10088000002B08DA0024401C614192185B411A4396
:1008900001D14008400010BDF0B51FB482B005463C
:1008A0000C0003D0084602F011FA02E002F00EFA42
:1008B00020300246009021462846FFF719FF049B8E
:1008C000059A04460F4618431143084314D01846AE
:1008D00010431BD0009840210A1A18460599FFF7CB
:1008E00017FF05460E46009A05990498FFF700FF8A
:1008F000084305D0012004E02046394607B0F0BD8A
:100900000020C11705430E432C43374300990E982E
:100910006305401A7905E40A00220C43FD0A0A30F7
:1009200002D500200146E9E70105101969410C9C38
:100930000D9D00196941FFF7A2FFDFE7F0B50C46F6
:100940005C4085B0E40FE40703944C000026640883
:1009500059009446490802460296224321D0624635
:100960000A431ED06200570D4A000E032303550DA3
:10097000012402462C492405781B1B0B360B40181A
:1009800023432643614600901C46501AB44103D3CA
:100990000098401C009002E0921800985B410028EB
:1009A00003DA0020014605B0F0BD00200121090551
:1009B0000746864611E064461D46141BB54106D322
:1009C0006546521BB341744607430C43A646CD0708
:1009D00040084908284392185B4105460D43EAD177
:1009E0001046184313D060461946504071400843E2
:1009F00006D06046101AB34106D20122002306E059
:100A000000220123DB0702E00122D24353100098A9
:100A100074460105381C6141029C039D001969411F
:100A2000FFF72DFFBFE70000FD0300004A000903A8
:100A30000123090B1B0519430A4B10B5520D9A42AD
:100A400002DA0020014610BD064B34339A4203DC23
:100A50009A1AFFF75DFE10BD034BD218FFF748FE50
:100A600010BD0000FF030000CDFBFFFF10B5002903
:100A700004DB0124E40740428C412146002B04DBC7
:100A80001C460123DB075242A341994200D1904208
:100A900010BD0000064C0125064E05E0E36807CCBA
:100AA0002B430C3C98471034B442F7D3FFF70CFBB0
:100AB000EC3C00080C3D000810B50F21C0B2490203
:100AC00000F01CFA10BD0000FFB5087889B015468B
:100AD000FF2805D0491C2D2804D00022002407E05F
:100AE00000240BE00122F9E70A235C430419491CA6
:100AF0000878FF28F8D1002A00D064420020049032
:100B00002A7801462D2A01D02B2A0FD16D1C2D2ABF
:100B100002D00022049209E00122FBE700260A220B
:100B200033466D1C00F0ACF9381871412F78FF2F57
:100B3000F4D10C9AA218069202460A4304D0FF236D
:100B4000069A9133DA4205DA002109980A4606C06E
:100B50000DB0F0BD0024B74AB54D2646079200F00F
:100B6000DFF9029006980391002801DA474200E07D
:100B7000074639050020AF4A001C51410191009001
:100B800012E0F80707D022462B4630460799FFF7B8
:100B9000DDFC0646079122462B4610461946FFF714
:100BA000D5FC04460D467F10002FEAD10698019B24
:100BB0000028009A0399029806DAFFF7BFFE324632
:100BC000079BFFF7BBFE05E0FFF7C0FC3246079B23
:100BD000FFF7BCFC049A002A02D00122D207514040
:100BE000099A03C2B4E7FFB591B00020099000252F
:100BF000ED432E209E685C681F460190B9696D1C0C
:100C0000129888470090396A88470028F6D10098E2
:100C1000401C0AD00D20C0018443002E12DD009834
:100C20002B2809D02D280DD103E00020C04315B09A
:100C3000F0BD012080020443B9696D1C12988847F9
:100C4000761E009003A9600501D52D2000E02B2021
:100C50006A461073491C0CA80F9102900AE0B9690A
:100C60006D1C12988847009001204002044313989D
:100C7000761E0560002E02DD00983028EFD0019925
:100C80000098884246D18020044308E00998401E1D
:100C900009900120400204431399681C0860B96957
:100CA0006D1C761E1298884700903028EED031E0F7
:100CB0000199884205D1200603D480200443761E82
:100CC0001EE0009802F036F9002826D001204002EC
:100CD000044307A90F980331761E88420BD200986F
:100CE0000F99303808700F98401C0F90200607D5D8
:100CF0000998401E03E0200602D40998401C099080
:100D0000A00502D51399681C0860B9696D1C12987A
:100D100088470090002ECBDC59E0002E57DD00986C
:100D2000652801D0452852D1A00550D503200002E6
:100D30008443B9696D1C761E129888470090002E76
:100D40000CDD2B2804D02D2808D1FF2001300443CE
:100D5000B9696D1C12988847761E0090E00501D590
:100D60002D2100E02B21029801700298401C029076
:100D7000019025E00120400204430EA902980131B0
:100D8000761E88420ED20098029930380006000E76
:100D9000087003D10299019881420AD90298401C37
:100DA000029006E0E00501D5234801E022484042D8
:100DB0000990B9696D1C12988847009013980560D6
:100DC000002E04DD009802F0B5F80028D2D1F969B0
:100DD000129888470F99FF200870029903AA08709B
:100DE00000200A900B900CA90AA8099BFFF76CFE43
:100DF000A00502D40120C04319E72420044209D0F1
:100E0000E00713D138680B9A0A99031D3B6000680C
:100E100006C00BE00B990A98FFF74EFC0146E0076D
:100E200004D13868021D3A60006801602846FEE679
:100E3000000014400000F03FF1D8FFFF4268002A94
:100E400008D001680B78491C002B03D0521E06C045
:100E5000184670470121C160881E70474268002A09
:100E60000BD0C3680168002B07D183688B4204D084
:100E7000491E521C06C0002070470020C043704726
:100E8000F0B51FB486B00020009001900290069843
:100E9000069980B204900798090C020400141143CB
:100EA00007900027089D099806913E463C4603900E
:100EB0000398A9B20204000C039004982D0C15436A
:100EC000484300212246FFF713FCC7197141103433
:100ED0000E46402CECDB3846029AFFF709FC009ADC
:100EE000019B8018009059410298019110300290A6
:100EF0004028CCDB00980BB0F0BD00007F2801D962
:100F0000002207E0054B42089A5CC00700D1120995
:100F10001207120F0120904008407047A93C0008BA
:100F20000EB5054A02920022009213460192FFF785
:100F3000B3FC03B000BD00003304000038B5044624
:100F4000064805490068FFF7D5F8604300E0401EF9
:100F500000900028FBD138BD40420F00380000202F
:100F6000F8B5274C00272770264D05E0012000F03A
:100F7000FDF92078401C20702868400702D42078B2
:100F80000A28F3D320780A2802D11FA001F07AFEA4
:100F90001C4E40363068A080277005E0012000F02C
:100FA000E5F92078401C20702868400702D420789A
:100FB0000A28F3D320780A2802D117A001F062FE94
:100FC000306880B22081FFF729FB0546E088FFF7F3
:100FD00025FB1649FFF77FF92946FFF7B9F90546C2
:100FE0006061A088FFF71AFB2946FFF774F90B210F
:100FF000C943FFF7EBF90121FFF7E8F92061F8BDDC
:101000000000002000240140CDA8B5C034D7AABB01
:10101000BBB3ACCAB10D0A00CDA8B5C03137D7AA51
:10102000BBBBB3ACCAB10D0A0000000000004040D9
:10103000F8B506460D464036317C01290DD0012118
:10104000317401688A68520709D5416D2022114325
:101050004165002030740120F8BD0220F8BD174B17
:101060006A68D80547109A42154C8A6A2B6812D0D4
:101070005B035B0B1A438A622968490305D5A168A3
:101080000143A1600A20FFF759FF2868800312D5A9
:10109000A06838430EE05B035B0B9A438A622968C1
:1010A000490302D5A1688143A1602868800302D565
:1010B000A068B843A06000203074F8BD01100000A3
:1010C0000027014070B5040006D0606D264600255B
:1010D0004036002802D006E0012070BDA5653574B9
:1010E000204600F0D3F8606DC00603D421688868FC
:1010F000400705D5606D1021084360653574EBE746
:10110000606DFF22013290430222104360658868BF
:101110008207920F5B48012A02D10A68D2072BD1BD
:10112000032362689B079A4205D05B429A4202D031
:101130005B009A4209D10A69920092080A6121680B
:101140000A6963681A430A610CE00A69920092080E
:101150000A6181680F22920491438160816862680C
:10116000114381602168CA6818239A43CA602168C4
:10117000CA68A3681A43CA60816801225206914373
:1011800081608168A28E5206114381602068816867
:10119000C90004D4816801221207114381602068CC
:1011A000C168394A1140C1602069E168022825D030
:1011B00000200143204620300278037B52035B006D
:1011C0001A431143226B1143A26992031143E2694E
:1011D000D20311432268D3681943D160616A0A4679
:1011E000FF3AC23A05D0A26A11432268D368194374
:1011F000D16042780121012A02D00BE00420D8E717
:101200000078002823D0606D202210436065A06D17
:101210000843A065E06B012820681FD00169C90759
:1012200003D0016949084900016120684169C90882
:10123000C900416120684169A26B11434161A56504
:10124000606D80088000401C6065002070BD2068D3
:10125000C26801231B041A43C260DBE70269FF2353
:101260009B009A43026120680269236CA66C1A43B2
:10127000636C33431A430261206802690A430261C6
:10128000D3E70000002701401902FEFF10B586B029
:10129000044614216846FEF77AFF0E49206888420A
:1012A00016D10D48416B421511434163C16A0122B9
:1012B0001143C162C06A6946104005901020009039
:1012C00003200190002002900520000700F060F844
:1012D00006B010BD002401400010024030B50146A8
:1012E00020314A790023022A04D00422C2630B7100
:1012F000012030BD026814680E25AC4314600268FA
:101300001468640864001460446C1C2214400122B8
:101310001546006CA54045604A7118460B7130BDFA
:1013200070B50024014620314A79022A03D00421F5
:10133000C163012418E0026813680E25AB431360F3
:10134000026813685B085B001360436C1C22134047
:10135000012215469D40036C5D604A7100220A71AE
:10136000816B002900D08847204670BD70B50446C7
:1013700000F0EAF80546601C02D004480078241802
:1013800000F0E2F8401BA042FAD370BD2C00002010
:10139000F8B5002303240125B8E032462E469E40CE
:1013A000B446324079D00E79B607B60F012E01D07F
:1013B000022E17D186682746B6465E00B7400096D3
:1013C0007646BE43B646CF68009EB7407646374362
:1013D000876046686746BE430F79FF06FF0F9F4050
:1013E000374347600E79F643B6070ED0C6682746E6
:1013F000B4465E00B646B7406646BE43B4468F6804
:101400007646B74066463743C7600E79B607B60FD3
:10141000022E14D1DE08B60036180096366A5F0731
:10142000B446FE0E0F27B646B7406646BE43B446E6
:101430000F697646B74066463743009E37620668B6
:101440002746B4465E00B646B7406646BE430F79AF
:10145000B446BF07BF0F7646B740664637430760BE
:101460004E68B603B60F50D02B4F7E6B2E437E6373
:101470009F082A4EBF00BE190096B6680F27B446D3
:101480009E07360FB646B7406646BE4305273F0760
:10149000B446B84202D1002710E036E0204FB842EF
:1014A00001D101270AE01F4FB84201D1022705E010
:1014B0001D4FB84201D1052700E006277646B74008
:1014C00066463743009EB760184EB6684F6896432D
:1014D000FF0200D51643154FBE60FE684F68964365
:1014E000BF0200D51643114FFE607E684F689643D9
:1014F000BF0300D516430D4F7E603E684F6896438C
:10150000FF0300D51643094A16605B1C0A6816469D
:10151000DA4000D041E7F8BD001002400000014071
:101520000004005000080050001C0050000401405E
:101530000069084000D001207047002A01D0816175
:101540007047816270470000014880687047000062
:101550002C00002002488168027889188160704759
:101560002C00002010B508480024016840221143D7
:101570000160032000F00AF8002801D0012401E0F6
:1015800000F026F8204610BD0020024070B5044649
:101590000D4D7D202978C000FEF7ACFD01460B48BB
:1015A0000068FEF7A7FD00F01FFC002809D1042CFD
:1015B00007D200222146401E00F022F800206C6075
:1015C00070BD012070BD00002C00002038000020FC
:1015D0000448416B012211434163816B02041143B2
:1015E0008163704700100240002805DBC106C90E68
:1015F00001208840014908607047000000E100E0D8
:1016000010B501F09FFB10BDF8B504460078002727
:10161000504D800674D54F4E403EB06BC00004D490
:10162000B06BA9050843B06301274B480168C905A1
:1016300011D40168821511430160FFF785FF009006
:1016400005E0FFF781FF0099401A642837D8424827
:101650000068C005F5D532680321090560680A40B5
:101660000140914208D08103890F032904D13168D8
:10167000890301D50120F8BD2A69032109040A4024
:1016800022D0084090421FD02078800631D52869AA
:101690002A6988430121C9040A432A612A698A43C5
:1016A0002A612861C0050FD5FFF74EFF009008E0C2
:1016B000FFF74AFF0099411A2848814201D90320C7
:1016C000F8BD28698005F3D52078800611D56168BA
:1016D0008803800F032805D132680005824301404A
:1016E0000A433260286903226168120411400843EA
:1016F0002861002F04D0B16B012000078143B16342
:101700002078800705D5E8680C218843A168084344
:10171000E8602078400706D5E868032189028843FD
:10172000E1680843E8602078000706D5E8680321EF
:101730000903884321690843E8602078000606D53C
:10174000E86803218904884361690843E860002050
:10175000F8BD0000401002400070004088130000F7
:10176000F8B50E46050038D05E480068C007C00FC7
:10177000B04214D25B4C20684008400030432060E7
:10178000FFF7E2FE074605E0FFF7DEFEC11B564805
:1017900081427AD82068C007C00FB042F4D12878BF
:1017A000524C800705D5E068F0218843A9680843BA
:1017B000E0602878C00752D06868022806D0032865
:1017C00007D0216801280AD0890504E0216889032F
:1017D00001E021688901002903DB0120F8BD4907E8
:1017E000F9E7E168890889000143E160FFF7ACFE91
:1017F0000746686802280AD0032814D001281ED0A2
:1018000029E0FFF7A1FEC11B374881423DD8E068BF
:101810000007800F0228F4D121E0FFF795FEC11BDD
:101820003148814231D8E0680007800F0328F4D1A5
:1018300015E0FFF789FEC11B2B48814225D8E068DF
:101840000007800F0128F4D109E0FFF77DFEC11BDE
:101850002548814219D8E0680007800FF5D121485A
:101860000168C907C90FB14217D901684908490081
:1018700031430160FFF768FE074608E005E0FFF727
:1018800063FEC11B1848814201D90320F8BD1548E9
:101890000068C007C00FB042F1D12878400706D5D4
:1018A000E068072109028843E9680843E060287876
:1018B000000707D5E0680721C90288432969C900E4
:1018C0000843E06000F03AF8E168094A0906090FA8
:1018D000515CC8400749086007480068FFF756FE9A
:1018E000F8BD0000002002408813000000100240F4
:1018F000883C0008380000203000002004480549DA
:101900000068C968044A4905490F515CC8407047DE
:101910003800002000100240A13C0008044805499E
:101920000068C968044A8904490F515CC84070477F
:101930003800002000100240A13C000870B51A4A8F
:10194000D3681A490C2018408D0004280CD04E0092
:10195000082810D00C2810D050680004410F012036
:10196000C003491C884070BD1068C00601D50846F8
:1019700070BD284670BD304670BD98020C4C000FFB
:10198000205C1B029C0FD368641CDB0301D531462D
:1019900003E01268D20600D4294601F0AEF92246CF
:1019A0000023FEF7BDFB70BD0010024000093D00A2
:1019B000983C0008FEB505007ED0F74CE7680C2087
:1019C000E66807400120000406402878C00747D099
:1019D000082F05D00C2F0AD101200004864206D121
:1019E000206880033CD568680028E5D038E00120F5
:1019F00069680004814203D121680143216011E03C
:101A0000052301221B0492049942216802D111434B
:101A10002160F1E781432160216801400091206845
:101A200090432060686800280DD0FFF78DFD00907E
:101A300005E0FFF789FD0099401A64287ED82068E8
:101A40008003F6D50CE0FFF77FFD009005E0FFF77F
:101A50007BFD0099401A6428F0D820688003F6D4F2
:101A6000287880075DD5E868810604D522682021A2
:101A70000A43226088430923042F0DD00C2F01D183
:101A8000002E09D000283CD02168994301432160F1
:101A9000FFF75AFD064628E02168490701D50028CE
:101AA0008AD061681F22120291432A6912021143EF
:101AB00061602168994300E091E101432160FFF7F3
:101AC0003DFFE16809060A0FB449895CC840B44982
:101AD0000860B4480068FFF759FD002874D120E081
:101AE000FFF732FD801B0228A8D820684007F7D5F1
:101AF00060681F2109028843296909020843606060
:101B00000FE02068400840002060FFF71DFD0646FA
:101B100004E0FFF719FD801B02288FD820684007DA
:101B2000F7D42878C00661D5002F0DD0A869002809
:101B30004BD02068FF210131084300E0C6E020605F
:101B4000FFF702FD06462DE02068800502D5A86952
:101B50000028A5D06068072149038843296A084303
:101B600060606068297F0002000A0906084360601F
:101B7000286A410B0120C003491C8840E16809061E
:101B80000A0F8649895CC840854908608548006815
:101B9000FFF7FCFC002817D128E0FFF7D5FC801BDD
:101BA0000228A1D820688005F7D56068072149037D
:101BB0008843296A084360606068297F0002000A40
:101BC00009060843606011E0E1E02168FF20013070
:101BD00081432160FFF7B8FC064604E0FFF7B4FC40
:101BE000801B022872D820688005F7D428786E4EB2
:101BF000000724D568690028306910D00121084306
:101C00003061FFF7A1FC009005E0FFF79DFC009913
:101C1000401A02285AD830698007F6D50FE04008EC
:101C200040003061FFF790FC009005E0FFF78CFC6E
:101C30000099401A022849D830698007F6D42878DC
:101C4000400765D500200290A06BC00006D4A06BB1
:101C5000012109070843A06301200290534801684D
:101C6000C90511D40168821511430160FFF76CFCAE
:101C7000009005E0FFF768FC0099401A642825D819
:101C80004A480068C005F5D5FF20AA6801308242A5
:101C900003D131690143316111E001218902002A38
:101CA00007D005231B029A4203D132690A433261ED
:101CB000EFE7326982433261306988433061A86856
:101CC00000280FD0FFF740FC009007E05EE0FFF730
:101CD0003BFC0099411A3648814257D8306980054B
:101CE000F5D50DE0FFF730FC009006E0FFF72CFC87
:101CF0000099411A2E48814248D830698005F5D4B0
:101D00000298002804D0A06B012109078843A06332
:101D1000686A002865D00C2F4CD0012636060228B0
:101D2000206805D0B0432060FFF70EFC05462FE089
:101D3000B0432060FFF708FC074604E0FFF704FC0F
:101D4000C01B022822D820688001F7D4E96AA86A5B
:101D5000E2680843296BFD231B049A43114308439F
:101D6000E060206830432060FFF7EEFB054604E0AA
:101D7000FFF7EAFB401B022808D820688001F7D54E
:101D80002FE0FFF7E1FB401B022801D90320FEBD35
:101D900020688001F5D424E000100240883C00084F
:101DA0003800002030000020401002400070004049
:101DB000881300000128EAD0E06801210904AA6A1A
:101DC000014091420BD10F218904EA6A01409142FE
:101DD00005D1032189050840296B884201D00120E3
:101DE000FEBD0020FEBD0000094910B5401E88421E
:101DF00001D9012010BD074C60610321081F00F0CC
:101E0000A1FF0020A06107202061002010BD00007C
:101E1000FFFFFF0000E000E07047704770470000E0
:101E2000F8B502680446D06911689368A44D064667
:101E30002E4025468035002E71D0A24FDE07F60FCA
:101E40000F4037437ED0C70706D0CF0504D5012702
:101E500017626A683A436A60820708D5DA0706D0D3
:101E6000276802223A626A6804273A436A60420796
:101E700008D5DA0706D0236804221A626A680223AA
:101E80001A436A60020709D520220A40324305D06E
:101E9000236808221A626B6813436B60020509D538
:101EA0004A0107D501222368D2021A626A682023F8
:101EB0001A436A606A68002A39D0800606D5880607
:101EC00004D5A16E002901D02046884768682168A2
:101ED0008968490602D4282108422DD0204600F006
:101EE00051FD21688868400622D5EFF31080012259
:101EF00082F310888A6840239A438A6080F31088AE
:101F0000606F002814D070498163606FFFF708FA92
:101F100000280CD0606F816B08E000E012E08606BC
:101F200010D58E060ED5A16EAFE020468847F8BDCD
:101F30002046FFF773FFF8BD2046FFF76FFF002034
:101F40006860F8BD266E012E7DD1C6067BD5CE0613
:101F500079D51023136222689068264640064036E1
:101F6000002849DA616F086840680004000CE8D076
:101F7000378B8742E5D9708308680068800634D4BF
:101F8000EFF31080012181F3108811681F01B9431C
:101F9000116080F31088EFF31080012181F3108825
:101FA00021688A68520852008A6080F31088EFF333
:101FB0001080012181F3108821688A684027BA4384
:101FC0008A6080F310882020286000202066EFF3CC
:101FD0001080012181F3108821680A689A430A6001
:101FE00080F31088606FFFF779F902206066308B0C
:101FF000718B401A81B234E0308B718B401A81B200
:10200000708B00289DD000299BD0EFF31080012613
:1020100086F310881668FF272137BE43166080F3C9
:102020001088EFF31080012282F3108822689668EE
:1020300076087600966080F31088202028600020C3
:102040002066A06600E010E0EFF31080012282F32A
:102050001088226815689D43156080F3108802205F
:1020600060662046FFF7D8FEF8BDC50208D55B02C2
:1020700006D50120000510622046FFF7CEFEF8BD10
:10208000030606D50B0604D5E16E002900D04CE707
:10209000F8BD4006FCD54806FAD52046EFF310817E
:1020A000012383F3108813684024A343136081F352
:1020B00010882021C1670021C16600F0F5F8F8BD45
:1020C0000F080000200100047129000810B5040069
:1020D00003D0E06F002802D007E0012010BD0021EE
:1020E00078200155204600F027F82420E06720687A
:1020F0000168490849000160204600F073FC01288E
:10210000ECD0606A002802D0204600F06AFB20680C
:1021100041680922D20291434160206881682A22E5
:1021200091438160206801680122114301602046CB
:1021300000F0BCFB10BD0000F0B587B004461421D0
:102140006846FEF724F8254F26680520002224491A
:102150000123022403250007BE421AD18E6B9F047F
:102160003E438E63CE6A1E43CE62C96A0395194010
:1021700005910C2100910621049101940292694677
:10218000FFF706F9002211461D20FFF739FA1D203E
:102190001FE0144FBE421ED18E6B01277F043E43C9
:1021A0008E63CE6A1E43CE62C96A0395C907C90F02
:1021B00005910321490200910421049101940292A6
:1021C0006946FFF7E5F8002211461C20FFF718FAD0
:1021D0001C20FFF709FA07B0F0BD000000480040DE
:1021E0000010024000440040FFB50446C06F83B0B9
:1021F00017460D46202802D0022007B0F0BD002D62
:102200000BD0002F09D00120A1680003814206D124
:102210002069002803D1E80701D00120EDE7002163
:10222000842001512120E067FFF78EF926464036D1
:102230000190378277820120A1680003814202D198
:102240002069002802D02F46002511E000270FE06A
:1022500000228021204600F0B3FC002815D1002F79
:1022600017D02168387888627F1C708A401E70827F
:10227000708A019B002806980090E9D10022402135
:10228000204600F09DFC00280AD02020E0670320B3
:10229000B3E728882168C005C00D8862AD1CE4E75B
:1022A0002020E0670020A8E77047FEE710B50A4845
:1022B0000068C16989060AD5426A0948074BC17896
:1022C0005A54491CC1700121017100214171024819
:1022D000FFF7A6FD10BD0000A4000020B2030020FF
:1022E000240000207CB500252E48009501952C4C3B
:1022F000C56385602205046042600123C560072232
:10230000036182630246203229461370FF26517012
:10231000C23646628162117301630426836146619D
:10232000C3614163FEF7CEFE002801D072B6FEE71E
:102330001D4800900014019069461A48FEF778FE87
:10234000002801D072B6FEE718480090694615488B
:10235000FEF76EFE002801D072B6FEE7A0680121EC
:10236000C9070843A06004E06D1CEDB20120FEF730
:10237000FDFF2068000501D40A2DF5D30A2D02D1F6
:102380000BA000F07FFC20680121C90208432060F7
:102390000B480C49008BC880A0683043A0607CBD0E
:1023A00000240140480000201000001000000244FA
:1023B000414443D0A3D7BCCAA7B0DC0D0A0000003B
:1023C0006000F81F00000020F0B587B014216846B7
:1023D000FDF7DDFE1F48C26A04210A43C262C26AD9
:1023E0000A400592C16A01252943C162C16A294098
:1023F0000591C16A02263143C162C06A164F30405E
:10240000EC0305902A4621463846FFF796F805204A
:102410000022E3210007FFF790F8009400240195C3
:102420000294694638460394FEF7B2FFE320009019
:10243000052002946946019503940007FEF7A8FF62
:1024400069460648009602950194FEF7A1FF07B081
:10245000F0BD0000001002400008005000040050D1
:1024600010B50F4C0D482060E12040026060002054
:10247000A060E0602061A0610C2120626161606267
:102480002046FFF723FE002801D072B6FEE7206841
:10249000016820221143016010BD00000048004087
:1024A000A400002010B50F4C0D482060E120400230
:1024B00060600020A060E0602061A061E0610C210C
:1024C0002062616160622046FFF700FE002801D0B3
:1024D00072B6FEE72068016820221143016010BD3A
:1024E000004400402C010020F8B54C4CA078002896
:1024F0001CD14BA15048FDF755FE002816D00120F5
:102500007D25A070ED0007E04CA20D214CA000F04D
:10251000D3F82846FEF72AFF4DA20C214FA000F069
:10252000CBF80028F0D151A000F0ACFB53A14248F9
:10253000FDF738FE404D00285ED0E87C2C285BD0AB
:10254000002553A13C48FDF749FE002853D0514FC8
:1025500049E0022D04D0042D21D0092D43D13DE0C6
:1025600001F093F8FEF7A8F80646FEF75EF8C0B251
:102570006421FDF7BFFD642100904843FEF74EF84B
:102580003146FDF7A4FE3946FDF7E2FE0646009807
:10259000FEF744F83146FDF745FEA06123E001F067
:1025A00074F8FEF789F80646FEF73FF8C0B26421DA
:1025B000FDF7A0FD642100904843FEF72FF8314657
:1025C000FDF785FE3946FDF7C3FE06460098FEF787
:1025D00025F83146FDF726FEE06104E001F055F8EC
:1025E000FEF76AF820622AA10020FDF7F7FD6D1CB6
:1025F000EDB20028ADD1F8BD20A10F48FDF7D2FD06
:102600000028F8D0E87C2C28F5D10020A061E061FA
:10261000206221A000F036FBF8BD00000000002081
:102620002B514C574F4253455256453A20302C318E
:10263000392C302C30000000B20300204F4B00003A
:1026400041542B51474E5353433D310D0A00000076
:102650002B51474E5353433A2031000041542B51E4
:10266000474E5353433F0D0A00000000BFAAC6F473
:10267000474E5353B3C9B9A60D0A00002B51474E1C
:10268000535352443A2024474E474741000000002C
:102690002C00000000007042474E5353D0C5BAC50D
:1026A000B2EEB6A8CEBBB2BBB3C9B9A60D0A000044
:1026B000FEE7704770470000F7B50D460746FF215B
:1026C000002401311D48FDF762FD7D26F6003346EA
:1026D0002A4639461A48FFF787FDFF27194D2D373F
:1026E00004E0641CA4B20120FEF740FE2878002814
:1026F00001D1BC42F5D3BC4201D101241CE0124CF3
:102700002078401C20700120FEF730FE20780A2837
:10271000F6D300242C700D4D094833462A7807491A
:102720008830FFF761FD2C70022404480299FDF700
:1027300039FD002800D000242046FEBDB203002051
:10274000A4000020280000202900002027000020ED
:1027500010B5FEF7FFFE10BD30B599B034216846C4
:10276000FDF715FD14210DA8FDF711FD182112A884
:10277000FDF70DFD194801680322D2029143C214EE
:10278000891801600220009000241020099401257E
:10279000049003956846FFF70DF9002801D072B642
:1027A000FEE70F200D9080200F900E9510940021D1
:1027B00011940DA8FEF7D4FF002801D072B6FEE7F1
:1027C000062012901494159412A8FEF71DFF0028FD
:1027D00001D072B6FEE719B030BD000000700040B5
:1027E000704710B5818CC90707D001684A6801237A
:1027F0005B049A43836A1A434A60818C890707D530
:1028000001684A6801231B049A43C36A1A434A6059
:10281000818C490707D501684A6801239B049A43C4
:10282000036B1A434A60818C090707D501684A681F
:102830000123DB039A43436B1A434A60818CC90628
:1028400007D50268916801231B039943836B1943E1
:102850009160818C890607D501688A6801235B0332
:102860009A43C36B1A438A60818C490612D5036868
:102870005A6801210905046C8A4322435A60026C9C
:102880008A4207D10268516803235B059943436C70
:1028900019435160818C090607D501684A680123F4
:1028A000DB04806C9A4302434A6010BDFEB50746C4
:1028B0000025803704467D60FEF746FE01902068C3
:1028C0000068264600076036002819DA274800907D
:1028D0000121002249052046019B00F071F90028E2
:1028E0000ED0EFF31080012181F3108821680A686F
:1028F00080239A430A6080F310882020E06729E053
:1029000020680068400728D518480090012100225F
:1029100089052046019B00F053F900281DD0EFF3F4
:102920001080012181F3108821680A68FF23213378
:102930009A430A6080F31088EFF31080012181F33D
:10294000108821688A68520852008A6080F31088D3
:102950002020386035760320FEBD2020E0673860F7
:102960002566656635760020FEBD0000FFFFFF018D
:1029700010B5806A0022014640314A834A82FFF73F
:102980004DFA10BD10B5EFF31081012282F31088CB
:1029900002681368FF242134A343136081F3108875
:1029A000EFF31081012282F31088026893685B08BC
:1029B0005B00936081F31088016E01290BD1EFF366
:1029C0001081012282F31088026813681024A34347
:1029D000136081F31088202280210A5000210166B3
:1029E000816610BDF8B50446016880682369E66910
:1029F000184363690025334318436A4A0B686A4EDB
:102A0000334003430B602068416803231B03994351
:102A1000E368194341602168A069914201D0236AAB
:102A200018438B680B263602B34303438B605F4920
:102A300023685F488B420AD1C0680C21084027D028
:102A4000042829D0082825D00C2811D10EE0934263
:102A50000ED1C16803208002014019D001208002FC
:102A6000091A19D0091A15D0814201D1082700E0AE
:102A700010274F494F4840398600934234D1002FE8
:102A80000CD0022F0DD0042F10D0082F7ED128E0BB
:102A90000027EEE70227ECE70427EAE7FEF72EFF20
:102AA00006E00968C90605D4304603E0FEF746FF94
:102AB000002872D0626851005118814266D8110313
:102AC000814263D3010E0602500800233018594199
:102AD000FDF726FB03210902374A411A91425AD9D0
:102AE00054E00120C003E5E70122E369D2039342E9
:102AF0002AD13B0000F019F90906090C4A114A4A8B
:102B00004A264A00FEF7FAFE09E0FEF707FF06E054
:102B10000968C90605D4304603E0FEF70FFF002818
:102B20003BD0616840004A088018FDF7E3FA01468F
:102B3000224A1039914229D8511C01400007400F08
:102B4000084328E01046ECE73B0000F0EEF80906E9
:102B5000090C1F111F1F1F211F00FEF7CFFE09E0E8
:102B6000FEF7DCFE06E00968C90605D4304603E03E
:102B7000FEF7E4FE002810D061684A081018FDF73F
:102B8000B9FA02460D49103A8A4203D9012504E0F8
:102B90001046F1E780B22168C8600020A066E066B8
:102BA0002846F8BD00480040F369FFEF00440040AC
:102BB0004010024000093D00FFFC0F00EFFF000045
:102BC000FFB5064681B080360546044660350A9F4B
:102BD0002EE0781C2CD0FEF7B7FC0499401AB842BE
:102BE00014D8002F12D020680168490720D5C16988
:102BF000C94309070CD4082707622046FFF7C2FE25
:102C0000776000202876012005B0F0BD0320FBE7A7
:102C1000C069C04300050BD401202168C0020862CE
:102C20002046FFF7AFFE2020706000202876EDE7F9
:102C30002068C1690298884305D000210398814229
:102C4000C7D00020E0E70121F8E7000010B50A48EE
:102C50000068C16989060AD5426A0948074B0178AC
:102C60005A54491C017001214170002181700248B1
:102C7000FFF7D6F810BD00002C010020B2020020A2
:102C8000240000200FB410B503A9044B044A029895
:102C900000F058F910BC08BC04B01847B53600085D
:102CA000400000200FB410B504A9074B02AA0398F6
:102CB00000F048F9044602A9002000F0E1FC20469B
:102CC00010BC08BC04B01847813600082021020C53
:102CD00001D010211046020A01D01046083902091D
:102CE00001D01046091F820801D01046891E4208F3
:102CF00001D0881E7047081A7047F8B5040C8BB2D3
:102D0000264682B25E430D0C1046370C58433604FB
:102D100080190021794116466E43370C360480191C
:102D2000794126466E438919F8BD30B47446641E55
:102D30002578641CAB4200D21D46635D5B00E3183E
:102D400030BC18478307FF22DB0E9A408907090E23
:102D50009940002808DB830809489B001B18186865
:102D600090430843186070470007000F0838830835
:102D700004489B001B18D86990430843D8617047EA
:102D800000E400E000ED00E001480068704700004A
:102D90004400002002E008C8121F08C1002AFAD12E
:102DA00070477047002001E001C1121F002AFBD1CB
:102DB000704700000149086070470000440000208F
:102DC000F0B51FB486B00998089A030D002102439C
:102DD00014D05148514A181850430514119801282D
:102DE00010981AD0281A401C00264D4F4D490096C5
:102DF00001910490002812DA444211E01198012454
:102E000049A3012801D11098C1430698119A846002
:102E10000360C26041600BB0F0BD4042E4E704468D
:102E2000210500203F4A001C51410391029012E00D
:102E3000E00707D032463B4601990098FDF786FB34
:102E40000191009032463B4610461946FDF77EFB45
:102E500006460F466410002CEAD10498039B002814
:102E6000029A0999089806DAFDF770FB019B009A0F
:102E7000FDF76CFB05E0FDF761FD019B009AFDF796
:102E80005DFD04460E460022284BFDF7EFFD03D8FA
:102E90000020C043014607E00022254B2046314672
:102EA000FDF7A0FAFDF7C2FD102409E0002C0ADBB3
:102EB0000A220023FDF734F9079B30321A55641EAD
:102EC00002460A43F2D11122641C079B121B1C19F3
:102ED000119B012B03D0012308430ED10AE00843C4
:102EE00004D0112010900020119077E71098151A47
:102EF0006D1E0BE01098824202DD00236D1C03E082
:102F0000824201DA00236D1E002BEED00698119943
:102F10008260C16030C07EE701FCFFFF104D000001
:102F2000000014400000F03F300000000000F043BB
:102F30000000E03F30380A2801D20120704700200D
:102F400070470000FFB597B0064600251BE2252814
:102F500076D100242746F749049400E00443761C08
:102F600032780120203A90400842F7D130782A2860
:102F70000ED00222307801463039092916D804993A
:102F80000A235943303940181443761C0490F1E762
:102F9000189802C804911890002904DA012040030F
:102FA00004434842049002200443761C30782E28C3
:102FB00014D1042004437078761C2A2809D118986B
:102FC000761C80C8189009E00A214F43303FC7198A
:102FD000761C3078014630390929F5D930786C28CB
:102FE00010D006DC4C281AD068280ED06A2817D1D9
:102FF00004E0742813D07A2812D110E00120400593
:1030000004430CE00121090501E0032109050C43FB
:103010007178814203D1012000052418761C761CAA
:10302000307866280BD013DC58287DD009DC0028C6
:103030007BD04528F6D04628F4D047281AD1A9E1FC
:1030400018E0632835D0642870D0652812D1A1E13A
:1030500070286CD008DC6728F1D069287DD06E28F4
:103060000DD06F2806D1BCE073282ED0752873D000
:10307000782859D01A9A199990476D1C82E16002FC
:10308000400F022809D003280DD0042818980168A1
:103090000DD00D60001D189074E11898EA170168B2
:1030A0000D604A60F6E7189801680D80F2E70D7030
:1030B000F0E718986A4601781172001D18900020F8
:1030C000507202A80090012005E0189802C81890DC
:1030D00000200091C04361070ED5002101E0019955
:1030E000491C0191B94213DA8142F8DB019A009937
:1030F000895C0029F3D10BE0002101E00199491C12
:1031000001918142FADB019A0099895C0029F5D18D
:10311000019904981A9B471A21463846199A00F0DB
:1031200099FA4019019903E051E030E115E050E0CF
:10313000451807E0009800990078491C00911A9AF8
:10314000199990470198401E0190401CF2D12146E8
:1031500038461A9B199A12E137E00A2000210090A4
:1031600001916002410F022907D0189A01CA1892F2
:10317000C2179446032908D00AE01898C01DC10858
:10318000C90005C91891944607E000B2C2179446D9
:10319000042902D140B2C1178C46002261469445F1
:1031A00006DA0A460021404291418C462D2102E078
:1031B000210504D52B216A461173012103E0E107A3
:1031C00001D02021F7E7029156E00A200AE0102002
:1031D00008E01020009000210420044301910827FA
:1031E00003E008200021019100906002410F0229B4
:1031F00007D0189A01CA189200229446032908D0D1
:1032000008E01898C01DC108C90005C91891944666
:1032100003E080B2042900D1C0B20021029121074D
:103220002AD531780D91702906D0009A1021019B82
:103230004A401A4305D00EE040216A46117301212D
:1032400008E06146014306D030216A4611730D99AA
:10325000517302210291009A0821019B4A401A43AE
:103260000AD16146014301D1610705D530216A4683
:10327000117301217F1E02913178582904D02EA1AB
:103280000E910DA90D910DE030A1F9E76146019B6A
:10329000009AFCF745FF0E9B8C469B5C0D9A521ED4
:1032A0000D92137061460143F0D10D9805A9081ADB
:1032B00020300190600703D501200004844300E022
:1032C00001270198874201DD381A00E000200199AA
:1032D00000904118029809180498401A0490E003DD
:1032E00006D421461A9B199A049800F0B3F945199F
:1032F000002706E003A81A9AC05D199990476D1C33
:103300007F1C02988742F5DBE0030CD521461A9B0F
:10331000199A049800F09EF9451904E01A9A302091
:10332000199990476D1C0099481E00900029F5DC02
:103330001FE00000092801003031323334353637C0
:1033400038396162636465660000000030313233F1
:103350003435363738394142434445460000000091
:103360000D980D990078491C0D911A9A199990475A
:103370006D1C0199481E01900029F1DC4DE100F01F
:1033800059F94519761C3078002800D0DFE5284629
:103390001BB0F0BD600700D406271898C01DC108F7
:1033A000C90048680A680831C30FDB071891190083
:1033B00001D09CA108E0210501D59BA104E0E10713
:1033C00001D09AA100E09AA14300109130785B08E7
:1033D00065280CD006DC452809D046281DD0472892
:1033E00041D141E0662818D067283CD13CE000215B
:1033F000112F01DB112000E0781C0191009008A939
:1034000011A8FFF7DDFC139905910021119A15927F
:103410007F1C12980197009150E00120C007039093
:103420000120019008A9009711A8FFF7C9FC139A81
:10343000149905920022119B009212981593059AF7
:103440000192002901D0104602E0791C4018019039
:10345000381A01D5019804E04042401E0090781CC3
:103460000190C01B029043E0012F00DA01270021E8
:10347000112F01DD112000E038460191009008A9CC
:1034800011A8FFF79DFC13990591119A002112983C
:1034900015920091019721070CD40599B94201DBDF
:1034A000019900E00191012904DD159A491E515C42
:1034B000302906D0B84201DA011D05DA0121029156
:1034C00015E00199491EEDE7002805DC0099411837
:1034D00000910199091A03E0019A411C914200DD13
:1034E00001910099401A401C02900120C0070390EE
:1034F000200706D402990198814202DB0020C043D4
:10350000029000206946C87707AF0121039803376E
:10351000C907884224D0022011902B2012900398D2
:1035200000280CDA404203902D20129007E00A2177
:103530000398FCF7DFFD30317F1E0390397011993D
:10354000481E11900029F2DC03980028EFD1791E63
:10355000129808703078202108404530BF1E38701E
:1035600006A8C01BC01D039010980078002800D04A
:103570000120019941180298C017091803980918E9
:103580000498401A401E0490E00306D421461A9B7A
:10359000199A049800F05EF84519109800780028F0
:1035A00003D01A9A199990476D1CE00324D521463F
:1035B0001A9B199A049800F04DF845191CE00098E0
:1035C000002807DB00990598884203DD1598405CC8
:1035D000199901E0199930201A9A904700986D1CAA
:1035E000401C00900298401E0290002804D11A9AB4
:1035F0002E20199990476D1C0199481E01900029B1
:10360000DDDC05E038781A9A7F1C199990476D1C0B
:103610000399481E03900029F4DC21461A9B199A4D
:103620000498ACE62D0000002B00000020000000F4
:1036300000000000F8B5044600251E461746880421
:1036400004D405E039462020B0476D1C641EF9D52E
:103650002846F8BDFFB50446002581B01E46C803C4
:1036600001D5302700E02027880404D505E038463E
:103670000399B0476D1C641EF9D5284605B0F0BD0E
:103680000A68531C0B601070704730B583B0044655
:10369000FFF77AFB05460020009002460190214684
:1036A0006846FDF774F82846FFF784FB01990098F7
:1036B00003B030BD0349CA695206FCD5C2B28A6262
:1036C000704700000044004086B0FDF74BFFFFF755
:1036D00043F8FEF779FEFEF705FEFEF7C1FEFEF7A2
:1036E000E1FE01210022C903C048FDF726FF0524A1
:1036F0002407012280212046FDF71FFF01224021DF
:103700002046FDF71AFF4B20C000FDF72FFE0022D8
:1037100040212046FDF711FFB548FDF727FE7D2625
:10372000F60002E03046FDF721FEB2A20421B2A06D
:10373000FEF7C2FF0028F5D1B1A0FFF7A3FAADA2B2
:103740000621B3A0FEF7B8FFB3A0FFF79BFAB64D72
:10375000B64C1AE0A7A20821B5A0FEF7ADFF0028DD
:1037600010D1687A2C2803D0A97A2C2903D009E03B
:10377000287A303805E0297A0A2230395143303925
:10378000401860703046FDF7F1FD60780028E1D008
:103790006328DFD0C1B2A9A0FFF774FA02E0304677
:1037A000FDF7E4FDA9A20B21ABA0FEF785FF0028E1
:1037B000F5D1ACA0FFF766FA02E03046FDF7D6FD82
:1037C000ADA20B21AFA0FEF777FF0028F5D1B0A086
:1037D000FFF758FA02E03046FDF7C8FD85A20D213B
:1037E000AFA0FEF769FF0028F5D17D20000101E0C0
:1037F0007D20C000FDF7BAFDADA20C21AFA0FEF701
:103800005BFF0028F4D1B1A0FFF73CFA79A2232195
:10381000B3A0FEF751FF77A21E21BAA0FEF74CFF1E
:1038200074A21921BFA0FEF747FF72A21921C4A0FC
:10383000FEF742FF6FA20E21C8A0FEF73DFF6DA26A
:103840000C21CAA0CFE0CD4E3078012814D1CC4D48
:103850002878401C28700120FDF788FD28780A2868
:10386000F6D300253570C74E7D23DB003278C6497C
:10387000C648FEF7B9FC3570C54E3078012817D11F
:10388000C44D2878401C28700120FDF76FFD287872
:103890000A28F6D300253570BF4EBC487D23DB00D7
:1038A000327861498830FEF79FFC3570FEF71CFEC8
:1038B000BA4D02212846FDF73BFE002810D1012217
:1038C000D1034A48FDF739FE02212846FDF730FEB4
:1038D0000028F9D00520002280210007FDF72DFEE9
:1038E0000120FDF743FDE0684149401CE06088424B
:1038F000A9D9A0780028A6D00020E060FDF730FB11
:1039000000263546FDF72CFB30462169FCF78AFC82
:103910006D1C06460A2DF5D3A149FCF719FDA149F6
:103920002061884201DD642015E09F49884201DA68
:10393000002010E0FCF7ACFE9C4A9D4BFCF7FDFD1F
:103940009C4A9D4BFCF702FE00229C4BFCF7F5FDC8
:10395000FCF780FEC0B2019099A217219DA0FEF74E
:10396000ABFE0146A1A0FFF78DF92F49A7A0FFF7F5
:1039700089F9FEF7B9FDABA0FFF784F97F21AE48C6
:10398000FCF705FCAC487F217F30FCF700FC206A87
:10399000FCF77EFE00900F46E069FCF779FE0546D5
:1039A0000E46A069FCF774FE0B46009A019902923C
:1039B00004910246039701960095A0A19E48FFF747
:1039C00071F99D48FCF702FC9B4B02461846A4A1E6
:1039D0007F30FFF767F998487F30FCF7F7FBC1B2FB
:1039E000954804A27F30FEF767FE2CE700080050E0
:1039F000307500004F4B000041540D0A00000000DC
:103A00004E42C4A3D7E9D5FDB3A30D0A00000000C0
:103A1000415445300D0A0000D2D1B9D8B1D5BBD838
:103A2000CFD40D0A00000000B203002000000020E7
:103A300041542B4353510D0A00000000BCECB2E28C
:103A4000D0C5BAC5D6B53A25640D0A002B434552F8
:103A500045473A20302C310041542B4345524547CD
:103A60003F0D0A00455053CDF8C2E7D7A2B2E1B3EB
:103A7000C9B9A60D0A0000002B43474154543A200F
:103A80003100000041542B43474154543F0D0A007C
:103A90005053B8BDD7C5B3C9B9A60D0A0000000080
:103AA00041542B51474E5353433D310D0A00000002
:103AB0002B51474E5353433A2031000041542B5170
:103AC000474E5353433F0D0A00000000474E5353E7
:103AD000B5E7D4B4D2D1B4F2BFAA0D0A00000000F9
:103AE00041542B514C57534552563D223232312EC0
:103AF0003232392E3231342E323032222C353638B1
:103B0000330D0A0041542B514C57434F4E463D2232
:103B10003836323137373034313535303636392270
:103B20000D0A000041542B514C574144444F424A26
:103B30003D31392C302C312C2230220D0A0000006E
:103B400041542B514C574144444F424A3D31392C4A
:103B5000302C312C2231220D0A00000041542B510F
:103B60004C574F50454E3D300D0A000041542B51EB
:103B700053434C4B3D300D0A00000000250000204F
:103B80002600002024000020B2020020A400002013
:103B900028000020290000202700002000040050F9
:103BA0000000204133338340000040406666666673
:103BB00066661040BCE8A28B2EBA56400000594001
:103BC0002B51474E535352443A2024474E474741C6
:103BD0000000000041542B51474E535352443D22A4
:103BE0004E4D45412F474741220D0A00B7A2CBCD8C
:103BF000B6A8CEBBC7EBC7F32CB7B5BBD8B4FAC2D7
:103C0000EBD6B53A25640D0A00000000B4A6C0ED5D
:103C1000B7B5BBD8CAFDBEDD3A2D3E25733C2D0D90
:103C20000A000000B4A6C0EDB7B5BBD8CAFDBEDD22
:103C3000BDE1CAF80D0A0000B40100204C61743DDA
:103C4000252E34662C4C6F6E3D252E34662C416C2F
:103C5000743D252E32662C4241545F513D2564004F
:103C600041542B514C574441544153454E443D31EE
:103C7000392C302C302C25642C222573222C3078C2
:103C8000303030300D0A000000000000000000005D
:103C90000102030406070809030406080C10182093
:103CA000300000000001020304DDDDDDDDDCBBBB14
:103CB000DDDDDDDDDDDDDDDDDD9888888888888877
:103CC00088777777777788888885555556666666CA
:103CD0006666666666666888888333333222222287
:103CE00022222222222228888D0000000C3D00087A
:103CF0000000002048000000942D0008543D0008FA
:103D00004800002070080000A42D000800000000FA
:103D10000000000000000000A8610000000000009A
:103D20000000000000000000000000000000000093
:103D3000000000000000000001000000040000007E
:103D40000000000000002000000000000000000053
:043D5000000000006F
:04000005080000C12E
:00000001FF
